{
  "_format": "hh-sol-artifact-1",
  "contractName": "Splitwise",
  "sourceName": "contracts/mycontract.sol",
  "abi": [
    {
      "inputs": [
        {
          "internalType": "address",
          "name": "creditor",
          "type": "address"
        },
        {
          "internalType": "uint32",
          "name": "amount",
          "type": "uint32"
        },
        {
          "internalType": "address[]",
          "name": "path",
          "type": "address[]"
        },
        {
          "internalType": "uint32",
          "name": "min",
          "type": "uint32"
        }
      ],
      "name": "add_IOU",
      "outputs": [],
      "stateMutability": "nonpayable",
      "type": "function"
    },
    {
      "inputs": [
        {
          "internalType": "address",
          "name": "debtor",
          "type": "address"
        },
        {
          "internalType": "address",
          "name": "creditor",
          "type": "address"
        }
      ],
      "name": "lookup",
      "outputs": [
        {
          "internalType": "uint32",
          "name": "ret",
          "type": "uint32"
        }
      ],
      "stateMutability": "view",
      "type": "function"
    }
  ],
  "bytecode": "0x608060405234801561001057600080fd5b50610ab5806100206000396000f3fe608060405234801561001057600080fd5b50600436106100365760003560e01c8063713584a61461003b5780637a8790b41461006b575b600080fd5b61005560048036038101906100509190610675565b610087565b60405161006291906106d4565b60405180910390f35b61008560048036038101906100809190610874565b61011d565b005b60008060008473ffffffffffffffffffffffffffffffffffffffff1673ffffffffffffffffffffffffffffffffffffffff16815260200190815260200160002060008373ffffffffffffffffffffffffffffffffffffffff1673ffffffffffffffffffffffffffffffffffffffff16815260200190815260200160002060009054906101000a900463ffffffff16905092915050565b8373ffffffffffffffffffffffffffffffffffffffff163373ffffffffffffffffffffffffffffffffffffffff160361015557600080fd5b6101ea6000803373ffffffffffffffffffffffffffffffffffffffff1673ffffffffffffffffffffffffffffffffffffffff16815260200190815260200160002060008673ffffffffffffffffffffffffffffffffffffffff1673ffffffffffffffffffffffffffffffffffffffff16815260200190815260200160002060009054906101000a900463ffffffff168461059b565b6000803373ffffffffffffffffffffffffffffffffffffffff1673ffffffffffffffffffffffffffffffffffffffff16815260200190815260200160002060008673ffffffffffffffffffffffffffffffffffffffff1673ffffffffffffffffffffffffffffffffffffffff16815260200190815260200160002060006101000a81548163ffffffff021916908363ffffffff1602179055506002825110610595576103216000803373ffffffffffffffffffffffffffffffffffffffff1673ffffffffffffffffffffffffffffffffffffffff16815260200190815260200160002060008673ffffffffffffffffffffffffffffffffffffffff1673ffffffffffffffffffffffffffffffffffffffff16815260200190815260200160002060009054906101000a900463ffffffff16826105cf565b6000803373ffffffffffffffffffffffffffffffffffffffff1673ffffffffffffffffffffffffffffffffffffffff16815260200190815260200160002060008673ffffffffffffffffffffffffffffffffffffffff1673ffffffffffffffffffffffffffffffffffffffff16815260200190815260200160002060006101000a81548163ffffffff021916908363ffffffff16021790555060005b600183516103cb9190610930565b811015610593576104a76000808584815181106103eb576103ea610964565b5b602002602001015173ffffffffffffffffffffffffffffffffffffffff1673ffffffffffffffffffffffffffffffffffffffff16815260200190815260200160002060008560018561043d9190610993565b8151811061044e5761044d610964565b5b602002602001015173ffffffffffffffffffffffffffffffffffffffff1673ffffffffffffffffffffffffffffffffffffffff16815260200190815260200160002060009054906101000a900463ffffffff16836105cf565b6000808584815181106104bd576104bc610964565b5b602002602001015173ffffffffffffffffffffffffffffffffffffffff1673ffffffffffffffffffffffffffffffffffffffff16815260200190815260200160002060008560018561050f9190610993565b815181106105205761051f610964565b5b602002602001015173ffffffffffffffffffffffffffffffffffffffff1673ffffffffffffffffffffffffffffffffffffffff16815260200190815260200160002060006101000a81548163ffffffff021916908363ffffffff160217905550808061058b906109c7565b9150506103bd565b505b50505050565b60008082846105aa9190610a0f565b90508363ffffffff168163ffffffff1610156105c557600080fd5b8091505092915050565b60008082846105de9190610a47565b90508363ffffffff168163ffffffff1611156105f957600080fd5b8091505092915050565b6000604051905090565b600080fd5b600080fd5b600073ffffffffffffffffffffffffffffffffffffffff82169050919050565b600061064282610617565b9050919050565b61065281610637565b811461065d57600080fd5b50565b60008135905061066f81610649565b92915050565b6000806040838503121561068c5761068b61060d565b5b600061069a85828601610660565b92505060206106ab85828601610660565b9150509250929050565b600063ffffffff82169050919050565b6106ce816106b5565b82525050565b60006020820190506106e960008301846106c5565b92915050565b6106f8816106b5565b811461070357600080fd5b50565b600081359050610715816106ef565b92915050565b600080fd5b6000601f19601f8301169050919050565b7f4e487b7100000000000000000000000000000000000000000000000000000000600052604160045260246000fd5b61076982610720565b810181811067ffffffffffffffff8211171561078857610787610731565b5b80604052505050565b600061079b610603565b90506107a78282610760565b919050565b600067ffffffffffffffff8211156107c7576107c6610731565b5b602082029050602081019050919050565b600080fd5b60006107f06107eb846107ac565b610791565b90508083825260208201905060208402830185811115610813576108126107d8565b5b835b8181101561083c57806108288882610660565b845260208401935050602081019050610815565b5050509392505050565b600082601f83011261085b5761085a61071b565b5b813561086b8482602086016107dd565b91505092915050565b6000806000806080858703121561088e5761088d61060d565b5b600061089c87828801610660565b94505060206108ad87828801610706565b935050604085013567ffffffffffffffff8111156108ce576108cd610612565b5b6108da87828801610846565b92505060606108eb87828801610706565b91505092959194509250565b6000819050919050565b7f4e487b7100000000000000000000000000000000000000000000000000000000600052601160045260246000fd5b600061093b826108f7565b9150610946836108f7565b925082820390508181111561095e5761095d610901565b5b92915050565b7f4e487b7100000000000000000000000000000000000000000000000000000000600052603260045260246000fd5b600061099e826108f7565b91506109a9836108f7565b92508282019050808211156109c1576109c0610901565b5b92915050565b60006109d2826108f7565b91507fffffffffffffffffffffffffffffffffffffffffffffffffffffffffffffffff8203610a0457610a03610901565b5b600182019050919050565b6000610a1a826106b5565b9150610a25836106b5565b9250828201905063ffffffff811115610a4157610a40610901565b5b92915050565b6000610a52826106b5565b9150610a5d836106b5565b9250828203905063ffffffff811115610a7957610a78610901565b5b9291505056fea2646970667358221220617431e1f1bb0b8d6cb0e223e9a7d413e376bd2d45601c724486421715b43f8c64736f6c63430008110033",
  "linkReferences": {},
  "deployedLinkReferences": {}
}